:1000000091C098C097C096C095C094C093C092C04C
:1000100091C090C08FC08EC08DC08CC08BC08AC074
:1000200089C088C087C086C085C000407A10F35A56
:1000300000A0724E18090010A5D4E80000E8764828
:10004000170000E40B54020000CA9A3B000000E1D4
:10005000F505000080969800000040420F00000067
:10006000A08601000000102700000000E803000047
:1000700000006400000000000A0000000000010011
:10008000000000002C76D888DC674F0823DFC1DF32
:10009000AE59E1B1B796E5E3E453C63AE651997635
:1000A00096E8E6C28426EB898C9B62ED407C6FFC6F
:1000B000EFBC9C9F40F2BAA56FA5F490055A2AF7B1
:1000C0005C936B6CF9676DC11BFCE0E40D47FEF5BA
:1000D00020E6B500D0ED902E030094357705008022
:1000E000841E080000204E0A000000C80C33333381
:1000F000330F986E12831141EF8D2114893BE65521
:1001000016CFFEE6DB18D1844B381BF77C1D901D03
:10011000A4BBE424203284725E228100C9F124EC65
:10012000A1E53D2711241FBECFE5D1E0DEBFCDBF45
:1001300002D0F8C265CF9F92AF92BF92CF92DF926A
:10014000EF92FF920F931F93DF93CF93CDB7DEB75C
:10015000E4970FB6F894DEBF0FBECDBF3BD08B9AAD
:1001600093989399FECF63EC75EF88E490E446E0B2
:1001700024E07E010894E11CF11C870145D000E0D9
:1001800010E025E1C22ED12CCC0EDD1E90E2992E7E
:10019000570184EFE82E81E0F82E25D0F601E00F1C
:1001A000F11F80830F5F1F4F003211055CF48D300B
:1001B000A1F7939A939BFECFC50119D0C701019770
:1001C000F1F79398F601892D11928A95E9F700E0ED
:1001D00010E0E3CF12B88CE089B9599A88E18AB966
:1001E00086E083B908955F9BFECF8CB1089520E02F
:1001F00004C05D9BFECFECB92F5FFC01E20FF11D47
:10020000E081EE23B1F70895EF92FF920F931F93D1
:10021000F22FF02E47FD02C0E4E001C0E4E1242FFC
:10022000332727FD309537FF03C0309521953F4F89
:100230004F2D512F0F2FEE2E07D08F2D912F1F9165
:100240000F91FF90EF900895A9E0B0E0E9E2F1E0AE
:1002500036C26A01122FA02EBE2C2BE3201718F4F1
:100260002CE3922E02C0902E9394AE014F5F5F4F0D
:1002700027E0092D48D1BC018981E82EFF24C70160
:1002800089709070019711F4ADE209C0B1FE02C00F
:10029000ABE205C0B0FC02C0A0E001C0A0E2E3FEFA
:1002A0003BC0AA2311F423E001C024E0211710F081
:1002B00020E002C0121B212FEB2CB4FE02C0322F13
:1002C0000AC0F601322F80E202C0819331503323FD
:1002D000E1F7C20ED11CAA2319F0F601A1936F0118
:1002E000F6013196E2FE05C09EE4D6019C9381E4BE
:1002F00004C09EE6D6019C9381E611968C9391836F
:100300003296DF01832F90E202C09D9381508823B3
:10031000E1F7E30FF11D40C0E2FE42C0AA2311F451
:1003200023E001C024E0211710F020E002C0121BDE
:10033000212FEB2CB4FE02C0922F0AC0F601922F9F
:1003400080E202C0819391509923E1F7C20ED11C43
:10035000AA2319F0F601A1936F01F6013196E2FE8E
:1003600008C089E4D6018C938EE411968C9386E4C0
:1003700007C089E6D6018C938EE611968C9386E6AB
:1003800081833296DF01892F20E202C02D938150B4
:100390008823E1F7E90FF11D10822EEF3FEFAFC088
:1003A000161617061CF041E050E003C0AB014F5F8A
:1003B0005F4FAA2019F480E090E003C08A2D90E0FE
:1003C000019620E030E0AA2311F021E030E0240F74
:1003D000351F280F391F812F90E02817390714F097
:1003E00020E002C0121B212F4B2D50E0CA0180716A
:1003F0009070B4FC0DC0B3FC0BC0F601322F40E28C
:1004000002C0419331503323E1F7C20ED11C01C029
:10041000322FAA2319F0F601A1936F01892B11F055
:10042000132F0AC0F601132F80E302C081931150ED
:100430001123E1F7C30ED11C092D060FBA8090E1FC
:10044000892E912C8E209F20E4FE04C0F1E3BF167C
:1004500009F40150101614F001E003C0093008F04F
:1004600008E09B0177FF02C020E030E0CB0101965D
:10047000821B930BFE013196E80FF91F8EE2F82ED6
:100480003B01601A71088A2D90E044275527481BCC
:10049000590B8FEF2F3F380719F4D601FD926D01EC
:1004A000621773072CF06216730614F4808101C082
:1004B00080E32150304031962417350724F0D601CF
:1004C0008D936D01E6CF2617370749F4B5E3BB15C9
:1004D00028F0BB1621F48114910409F481E3F6019C
:1004E0008193D601812F90E202C09C938150119696
:1004F0008823D9F7E10FF11D108220E030E0C90117
:100500002996EEE0F8C0283008F027E03327DA011A
:10051000990F311D87FD916000966105710539F4D1
:1005200032602E5F3D9330E32A95E1F708959F3FB7
:1005300030F080387105610509F03C5F3C5F3D9308
:10054000913008F08068911DDF93CF931F930F9334
:10055000FF92EF92192F987F9695E92F9695969591
:10056000E90FFF27EC57FF4F99273327EE24FF248D
:10057000A701E70105900894079428F4360FE71EB9
:10058000F81E491F511D660F771F881F991F06947B
:10059000A1F70590079428F4E70EF81E491F561F8F
:1005A000C11D770F881F991F661F0694A1F705903C
:1005B000079428F4F80E491F561FC71FD11D880F36
:1005C000991F661F771F0694A1F70590079420F4E2
:1005D000490F561FC71FD81F990F661F771F881F07
:1005E0000694A9F784911095177041F0D695C79598
:1005F00057954795F794E7941A95C1F7EAE2F0E02A
:1006000068941590159135916591959105907FE2CB
:100610007395E118F10A430B560BC90BD009C0F7CB
:10062000E10CF11E431F561FC91FD01D7EF470330D
:1006300011F48A95E6CFE894015030F0080F0AF4DF
:100640000027021708F4202F2395022F7A3328F071
:1006500079E37D932A95E9F710C07D932A9589F671
:10066000069497956795379517951794E118F10AB1
:10067000430B560BC90BD00998F023957E917395C7
:100680007A3308F070E37C932013B8F77E917061A1
:100690007D9330F0839571E37D9370E32A95E1F7C4
:1006A0001124EF90FF900F911F91CF91DF91992727
:1006B00087FD909508952F923F924F925F926F928F
:1006C0007F928F929F92AF92BF92CF92DF92EF92E2
:1006D000FF920F931F93CF93DF93CDB7DEB7CA1B63
:1006E000DB0B0FB6F894DEBF0FBECDBF09942A888E
:1006F000398848885F846E847D848C849B84AA8436
:10070000B984C884DF80EE80FD800C811B81AA81C2
:10071000B981CE0FD11D0FB6F894DEBF0FBECDBF8D
:08072000ED010895F894FFCFEC
:00000001FF
