:1000000014C02EC02DC02CC02BC02AC029C028C0AF
:1000100027C026C025C024C023C022C021C020C0C4
:100020001FC01EC01DC01CC01BC011241FBECFE5B9
:10003000D1E0DEBFCDBF10E0A0E6B0E0E6E7FAE039
:1000400002C005900D92AE36B107D9F710E0AEE6CA
:10005000B0E001C01D92AC39B107E1F786D109C506
:10006000CFCF87B3806A87BBC79AC59A8FEF8FB906
:100070008AE28DB980EF8EB90895E199FECF1CBA5E
:100080008EBB6DBBE29AE19A0895E199FECF1EBA4C
:10009000E09A8DB3089520E030E02F5F3F4FE19963
:1000A000FECF922F2EBBE09A8DB3F901EC56FF4F95
:1000B0008083E199FECF9E5E9EBBE09A8DB3F901ED
:1000C000E257FF4F80832630310539F780918F004A
:1000D00090E0C0979093700080936F0080919000A3
:1000E00090E0C09790937200809371000895CF9232
:1000F000DF92EF92FF920F931F93DF93CF93CDB7D1
:10010000DEB760970FB6F894DEBF0FBECDBF20E01C
:1001100030E040E050E02D833E834F83588780E0FD
:1001200090E0A0E8BFE389879A87AB87BC872D87DB
:100130003E874F87588B40E6E42E40E0F42E00E0E7
:1001400010E0F70161917F01F801EB56FF4F6083EA
:100150000F5F1F4FC80191DF0630110591F737E699
:10016000E32E30E0F32E03E110E0F70161917F010F
:10017000F801E458FF4F6083C8017FDF0F5F1F4F16
:10018000FDE6EF16F0E0FF0681F781E090E0909346
:10019000700080936F00109272001092710000E066
:1001A00010E025E0C22ED12CCC0EDD1E7E0108947D
:1001B000E11CF11CF60180819181A281B3818983C8
:1001C0009A83AB83BC83F701E00FF11FC801079648
:1001D000608153DF0F5F1F4F0430110559F700E0B6
:1001E00010E099E0C92ED12CCC0EDD1E7E010894C2
:1001F000E11CF11CF60180819181A281B381898388
:100200009A83AB83BC83F701E00FF11FC8010B9603
:10021000608133DF0F5F1F4F0430110559F700E095
:1002200010E08DE0C82ED12CCC0EDD1E7E0108948E
:10023000E11CF11CF60180819181A281B381898347
:100240009A83AB83BC83F701E00FF11FC8010F96BF
:10025000608113DF0F5F1F4F0430110559F760965F
:100260000FB6F894DEBF0FBECDBFCF91DF911F91C7
:100270000F91FF90EF90DF90CF900895DF92EF9273
:10028000FF920F931F937C0105E710E05EEED52EE1
:10029000D092750088E480937600C80162E070E037
:1002A00082D384EC99E00197F1F7D0927500109217
:1002B0007600C80162E070E076D38FEE809375001F
:1002C000C80164E070E06FD380917600F70180830D
:1002D0008091770081838091780082831F910F91B4
:1002E000FF90EF90DF900895FF920F931F93CF93AD
:1002F000DF93C0E0D0E012EA6EEEF62E0FEEF09241
:1003000075001093760085E790E062E070E04BD3D3
:100310000093750085E790E063E070E044D3FE0150
:10032000E657FF4F809176008083FE01EB57FF4F29
:1003300080917700808321961E5F1C3A01F7DF9140
:10034000CF911F910F91FF9008958EEE80937500CD
:100350008EE18093760085E790E062E070E023D341
:1003600084EC99E00197F1F708952F923F924F9214
:100370005F926F927F928F929F92AF92BF92CF9235
:10038000DF92EF92FF920F931F93DF93CF93CDB73E
:10039000DEB7AC970FB6F894DEBF0FBECDBF65D207
:1003A00060DE73DE813029F080E090E061E065DEA0
:1003B0009EDE71DECADF88249924EE24FF2400E04B
:1003C00010E047E0242E312C2C0E3D1E31E1432E4F
:1003D000512C4C0E5D1ECE0147969CA78BA73E016B
:1003E0000894611C711CFE017A96FAA7E9A701C066
:1003F000460148D2F101E80DF91D8083640108949B
:10040000C11CD11CF0E2CF16D1040CF026C28D30F5
:1004100079F78F818A3209F020C298858091950002
:10042000981709F01AC2998580919600981709F0DB
:1004300014C29A8580919700981709F00EC29B8587
:1004400080919800981709F008C29C8580919900C6
:10045000981709F002C29D8580919A00981709F0BB
:10046000FCC193E29F838E858235C1F58F858434EC
:10047000A9F5EAE0CE16D10489F586E090E09093E4
:1004800074008093730010926E009DE3988BCE01F0
:100490000496F4DE24E0E22EF12CEC0EFD1E820127
:1004A000F30183E011928A95E9F7F70181917F01C9
:1004B00090E0B301EBD18981F80180838A81818347
:1004C0000E5F1F4FE214F30459F70091730010916F
:1004D0007400065F1F4F91E0E92EF12C8E85823566
:1004E00009F04FC08F85833409F04BC02889822FD3
:1004F0008154833008F045C0FBE0CF16D10409F0E9
:1005000040C010926E008DE3898B88E090E090935C
:10051000740080937300213411F418A609C02234AA
:1005200019F494E098A704C0233411F4E8E0E8A794
:10053000F8A4F7E0FF0E8E010E5E1F4FF30183E07B
:1005400011928A95E9F7E199FECFFEBAE09A8DB350
:1005500090E0B3019BD18981F80180838A818183F6
:10056000F3940E5F1F4F89A59AA50817190731F755
:100570000091730010917400055F1F4F81E0E82E19
:10058000F12C8E85833509F04DC08F85833409F0B9
:1005900049C09889892F8154833008F043C08989E4
:1005A0008D3309F03FC0E4E1CE16D104D9F5809136
:1005B0006E008130B9F510926E00913411F41FA2D3
:1005C00009C0923419F4F4E0FFA304C0933411F489
:1005D00088E08FA3B2E1EB2EF12CEC0EFD1E9FA163
:1005E000092F10E0095F1F4FF30183E011928A95F4
:1005F000E9F7F7018081898381818A83C3019ED1D4
:10060000682FC8013ADD82E090E0E80EF91E0F5F26
:100610001F4FE9A5FAA5EE16FF0631F78401A1E008
:10062000EA2EF12C8E85823509F043C08F85853402
:1006300009F03FC0888980538530D8F5FBE0CF169C
:10064000D104B9F510926E008DE3898B4DDEE4E0A4
:10065000F0E0F0937400E093730008890053F30115
:1006600083E011928A95E9F710E0F801E657FF4F11
:10067000808190E0B3010AD189818A8B8A818B8B3A
:10068000F30183E011928A95E9F70B571F4FF801A8
:10069000808190E0B301FAD089818C8B8A818D8B27
:1006A0000091730010917400055F1F4FF1E0EF2E71
:1006B000F12C8E85873561F48F85853409F03FC034
:1006C000FAE0CF16D104D9F581E080936E0033C0F3
:1006D0008335A9F58F85813491F588898D3379F536
:1006E00091E1C916D10459F580916E00813039F538
:1006F00010926E005201F2019081903300F1892F27
:100700008A538730E0F09B35D0F431968BA59CA5B9
:10071000E817F90789F701E010E0F50161915F0141
:10072000F801EC56FF4F6083C801A7DC0F5F1F4F35
:100730000730110591F78401E1E0EE2EF12C8E8552
:10074000823559F58F85833541F5FAE0CF16D1040E
:1007500021F510926E0086E090E0909374008093F3
:1007600073009DE3988B90E00FC0E199FECF539604
:10077000AEBB5397E09A8DB3FD01E157FF4F8083E5
:10078000A40DB51D8C939F5FA92FB0E0963069F73B
:1007900071E0E72EF12C00E110E08E858335F1F554
:1007A0008F858335D9F588898D33C1F580916E00A9
:1007B0008130A1F5E1E1CE16D10481F510926E00F1
:1007C0006201F201808180538A3040F531968BA519
:1007D0009CA5E817F907B1F703E110E0F601619174
:1007E0006F01F801E458FF4F6083C80146DC0F5FDA
:1007F0001F4F0931110591F780918F0090E0C0974C
:100800009093700080936F008091900090E0C0976B
:100810009093720080937100840104C0F1E0EF16A0
:10082000F104D9F420917100309172002115310545
:1008300059F080E090E005C0E4E0F1E03197F1F795
:10084000019682179307C4F340916F005091700096
:10085000C101B8012DD0EE24FF24F10180E21192F4
:100860008A95E9F7CC24DD24C3CD12B88CE089B990
:10087000599A88E18AB986E083B98B9A93989399BB
:10088000FECF08955F9BFECF8CB10895FB01982F9A
:1008900092959F709A3010F4905D01C0995C90839E
:1008A0008F708A3010F4805D01C0895C8183089567
:1008B000DF93CF9300D0CDB7DEB79C01939A939B83
:1008C000FECF4130510519F0F90180E023C0F90154
:1008D00030E080E090E008C020815D9BFECF2CB925
:1008E000820F911D3F5F31963617B0F390E0BE0145
:1008F0006F5F7F4FCBDF89815D9BFECF8CB98A8193
:100900005D9BFECF8CB908C090815D9BFECF9CB9EA
:100910008F5F31968617C0F35D9BFECF8DE08CB95B
:1009200084EF91E00197F1F793988AEF90E00197B7
:10093000F1F70F900F90CF91DF910895FC01908116
:10094000892F80538A3010F4282F08C0892F8154B2
:10095000863010F020E004C0292F27532295207FF5
:100960009181892F80538A3010F4280F06C0892F77
:100970008154863010F49753290F822F08958EB931
:1009800021E09BE2822F8A95F1F79DB9B79BFECFBC
:10099000822F8A95F1F79DB9769BF4CF81E08A95F5
:1009A000F1F78FB10895EF92FF920F931F93CF93BA
:1009B000DF93EC01162F10929B00C79AB79BFECFD6
:1009C00081E0982F9A95F1F7BD9ABF9AC598982F14
:1009D0009A95F1F7C7988A95F1F7C59A82E0E82EC3
:1009E000FF24F3940FEF80919B00813069F08130F8
:1009F00018F0823039F519C0888180FD03C0F0926B
:100A00009B0002C0E0929B00C79888818FB980EF5D
:100A1000B6DFBD988EEFB3DF80FF04C0C79AC59ADA
:100A200080E020C02196BD9A0DC0BD9880EFA7DF61
:100A30008883BD9A113011F40FB901C01FB82196F7
:100A40008EEF9DDF115079F6C59881E08A95F1F718
:100A5000BF98B79BFECF81E08A95F1F7BD98B59B13
:100A6000FECF81E0DF91CF911F910F91FF90EF902A
:060A70000895F894FFCF89
:0E0A760030324130323000313030303030001C
:00000001FF
