:1000000014C01BC01AC019C018C017C016C015C034
:1000100014C013C012C011C010C00FC00EC00DC05C
:100020000CC00BC00AC009C008C011241FBECFE518
:10003000D1E0DEBFCDBF02D05AC0E2CFBF92CF9297
:10004000DF92EF92FF920F931F93DF93CF93CDB781
:10005000DEB7A0970FB6F894DEBF0FBECDBF2DD090
:100060008B9A93989399FECF00E010E07E0108945C
:10007000E11CF11C90E2B92E84EFC82E81E0D82E4D
:1000800025D0F701E00FF11F80830F5F1F4F003273
:1000900011055CF48D30A1F7939A939BFECFC701B5
:1000A00019D0C6010197F1F79398F7018B2D1192A2
:1000B0008A95E9F700E010E0E3CF12B88CE089B947
:1000C000599A88E18AB986E083B908955F9BFECF8B
:1000D0008CB1089520E004C05D9BFECFECB92F5F8A
:1000E000FC01E20FF11DE081EE23B1F70895F894D1
:0200F000FFCF40
:00000001FF
