:1000000014C02EC02DC02CC02BC02AC029C028C0AF
:1000100027C026C025C024C023C022C021C020C0C4
:100020001FC01EC01DC01CC01BC011241FBECFE5B9
:10003000D1E0DEBFCDBF10E0A0E6B0E0EAE5F8E039
:1000400002C005900D92A836B107D9F710E0A8E6D6
:10005000B0E001C01D92AA38B107E1F74BD1FBC354
:10006000CFCF87B3806A87BBC79AC59A8FEF8FB906
:100070008AE28DB980EF8EB90895E199FECF1CBA5E
:100080008EBB6DBBE29AE19A0895E199FECF1EBA4C
:10009000E09A8DB3089520E030E02F5F3F4FE19963
:1000A000FECF2EBBE09A8DB3F901EE57FF4F808350
:1000B0002630310591F70895CF92DF92EF92FF92AB
:1000C0000F931F93DF93CF93CDB7DEB760970FB633
:1000D000F894DEBF0FBECDBF20E030E040E050E03E
:1000E0002D833E834F83588780E090E0A0E8BFE3F4
:1000F00089879A87AB87BC872D873E874F87588B28
:1001000030E6E32E30E0F32E00E010E0F7016191DD
:100110007F01F801ED57FF4F60830F5F1F4FC8014C
:10012000ACDF0630110591F700E010E025E0C22EAB
:10013000D12CCC0EDD1E7E010894E11CF11CF601D1
:1001400080819181A281B38189839A83AB83BC83AF
:10015000F701E00FF11FC801079660818EDF0F5F86
:100160001F4F0430110559F700E010E099E0C92E47
:10017000D12CCC0EDD1E7E010894E11CF11CF60191
:1001800080819181A281B38189839A83AB83BC836F
:10019000F701E00FF11FC8010B9660816EDF0F5F62
:1001A0001F4F0430110559F700E010E08DE0C82E14
:1001B000D12CCC0EDD1E7E010894E11CF11CF60151
:1001C00080819181A281B38189839A83AB83BC832F
:1001D000F701E00FF11FC8010F9660814EDF0F5F3E
:1001E0001F4F0430110559F760960FB6F894DEBF23
:1001F0000FBECDBFCF91DF911F910F91FF90EF9078
:10020000DF90CF900895DF92EF92FF920F931F93AC
:100210007C0109E610E04EEED42ED092690088E40D
:1002200080936A00C80162E070E0AFD284EC99E08C
:100230000197F1F7D092690010926A00C80162E05C
:1002400070E0A3D28FEE80936900C80164E070E093
:100250009CD280916A00F701808380916B0081833A
:1002600080916C0082831F910F91FF90EF90DF903F
:100270000895FF920F931F93CF93DF93C0E0D0E0D8
:1002800012EA5EEEF52E0FEEF092690010936A000E
:1002900089E690E062E070E078D20093690089E638
:1002A00090E063E070E071D2FE01E258FF4F809170
:1002B0006A008083FE01E758FF4F80916B008083C6
:1002C00021961E5F1C3A01F7DF91CF911F910F918C
:1002D000FF9008958EEE809369008EE180936A000E
:1002E00089E690E062E070E050D284EC99E00197FA
:1002F000F1F708952F923F924F925F926F927F9203
:100300008F929F92AF92BF92CF92DF92EF92FF9225
:100310000F931F93DF93CF93CDB7DEB7AB970FB695
:10032000F894DEBF0FBECDBFBFD19BDEAEDE813005
:1003300029F080E090E061E0A0DEBEDEACDECADF46
:10034000CC24DD2437E0832E912C8C0E9D1E21E1E0
:10035000622E712C6C0E7D1ECE0147969BA78AA73C
:100360009DE3292E83E0482E5E010894A11CB11C58
:100370000DE0302EFE017A96F9A7E8A7A2D1F4018C
:10038000EC0DFD1D80830894C11CD11CF0E2CF163A
:10039000D1040CF081C18D3089F78F818A3209F048
:1003A0007BC1988580918300981709F075C1998564
:1003B00080918400981709F06FC19A85809185001B
:1003C000981709F069C19B8580918600981709F0FC
:1003D00063C19C8580918700981709F05DC19D8558
:1003E00080918800981709F057C193E29F838E850A
:1003F000823581F58F85843469F5EAE0CE16D10423
:1004000049F510926800288ACE010496FCDE14E0BB
:10041000E12EF12CEC0EFD1E8301F501842D1192CD
:100420008A95E9F7F70181917F0190E0B50166D1E6
:100430008981F80180838A8181830E5F1F4FE814D0
:10044000F90459F73F8AC40161E170E03ED1B1E19E
:10045000CB2ED12C8E85823539F48F85833421F4CF
:1004600088898154823038F088898334E9F5FBE04B
:10047000CF16D104C9F510926800298A8889813481
:1004800011F41FA209C0823419F484E08FA304C0C0
:10049000833411F498E09FA3FFA0E7E0FE0E8E01E5
:1004A0000E5E1F4FF501842D11928A95E9F7E199AF
:1004B000FECFFEBAE09A8DB390E0B5011FD18981DD
:1004C000F80180838A818183F3940E5F1F4F88A592
:1004D00099A50817190731F73A8EC40164E170E055
:1004E000F4D0A4E1CA2ED12C8E85833509F04BC0FF
:1004F0008F85833409F047C09889892F81548330D0
:1005000008F041C089898D33F1F5E4E1CE16D104BC
:10051000D1F5809168008130B1F510926800913476
:1005200011F4552409C0923419F4F4E05F2E04C08C
:10053000933411F4E8E05E2E72E1E72EF12CEC0E1C
:10054000FD1E052D10E0095F1F4FF501842D11924E
:100550008A95E9F7F7018081898381818A83C501C2
:10056000DFD0682FC80189DD82E090E0E80EF91E37
:100570000F5F1F4FE8A5F9A5EE16FF0631F7C4017E
:1005800064E170E0A2D08E85823509F041C08F858C
:100590008534F1F5FAE0CF16D104D1F51092680058
:1005A000288A67DE8301EE24FF24F501842D119251
:1005B0008A95E9F7F701E258FF4F808190E0B50195
:1005C0009DD08981F80180838A818183F501842D02
:1005D00011928A95E9F7F701E758FF4F808190E083
:1005E000B5018CD08981F80182838A818383089444
:1005F000E11CF11C0C5F1F4FF5E0EF16F104A9F6AA
:100600003DA2C4016FE170E060D06FE1C62ED12C35
:100610008E85873571F48F85853459F48AE0C81644
:10062000D10439F491E090936800C4016AE070E06D
:100630004CD08E85833581F58F85813469F5888925
:100640008D3351F5E1E1CE16D10431F5809168008A
:10065000813011F5109268007301F301808180539D
:100660008A30D0F431968AA59BA5E817F907B1F72F
:1006700000E010E0F70161917F01F801ED57FF4FB5
:100680006083C801FADC0F5F1F4F0630110591F738
:10069000C40161E170E019D0F40180E211928A9501
:1006A000E9F7CC24DD246ACE12B88CE089B9599AD6
:1006B00088E18AB986E083B98B9A93989399FECFA3
:1006C00008955F9BFECF8CB108959C01939A939BF4
:1006D000FECFF90180E006C090815D9BFECF9CB902
:1006E0008F5F31968617C0F384EF91E00197F1F7A1
:1006F00093988AEF90E00197F1F70895FB01982F06
:1007000092959F709A3010F4905D01C0995C90832F
:100710008F708A3010F4805D01C0895C81830895F8
:10072000FC019081892F80538A3010F4282F08C053
:10073000892F8154863010F020E004C0292F2753E0
:100740002295207F9181892F80538A3010F4280FC1
:1007500006C0892F8154863010F49753290F822FB9
:1007600008958EB921E09BE2822F8A95F1F79DB919
:10077000B79BFECF822F8A95F1F79DB9769BF4CF78
:1007800081E08A95F1F78FB10895EF92FF920F9370
:100790001F93CF93DF93EC01162F10928900C79A15
:1007A000B79BFECF81E0982F9A95F1F7BD9ABF9A3B
:1007B000C598982F9A95F1F7C7988A95F1F7C59A39
:1007C00082E0E82EFF24F3940FEF809189008130BE
:1007D00069F0813018F0823039F519C0888180FDC8
:1007E00003C0F092890002C0E0928900C798888116
:1007F0008FB980EFB6DFBD988EEFB3DF80FF04C006
:10080000C79AC59A80E020C02196BD9A0DC0BD98B8
:1008100080EFA7DF8883BD9A113011F40FB901C0B2
:100820001FB821968EEF9DDF115079F6C59881E0B3
:100830008A95F1F7BF98B79BFECF81E08A95F1F7D3
:10084000BD98B59BFECF81E0DF91CF911F910F91B5
:0A085000FF90EF900895F894FFCF99
:08085A00313030303030000075
:00000001FF
